:100000000C945E000C9486000C9486000C94860080
:100010000C9486000C9486000C9486000C94860048
:100020000C9486000C9486000C9486000C94D601E7
:100030000C9486000C9486000C9486000C94860028
:100040000C9410060C9486000C94E6080C94180985
:100050000C9486000C9486000C9486000C94860008
:100060000C9486000C948600000000080002010039
:100070000003040700000000000000000102040863
:100080001020408001020408102001020408102002
:10009000040404040404040402020202020203032E
:1000A0000303030300000000250028002B000000CC
:1000B0000000240027002A00D301480911241FBE94
:1000C000CFEFD8E0DEBFCDBF11E0A0E0B1E0E8E7C0
:1000D000FDE102C005900D92A033B107D9F722E0EF
:1000E000A0E3B1E001C01D92A430B207E1F710E037
:1000F000CCEBD0E004C02297FE010E94640CC83B08
:10010000D107C9F70E948C090C94BA0E0C94000018
:1001100084B5836884BD17BC61E086E00C94320727
:1001200084B5836284BD18BC61E085E00C9432071D
:10013000CF93DF9360E08CE00E946B0760E088E083
:100140000E946B07C7E0D0E060E084E00E946B078C
:100150008091310190E00C2E02C0959587950A940C
:10016000E2F780FF02C061E001C060E088E00E9429
:100170006B0761E084E00E946B07219728F761E03C
:100180008CE0DF91CF910C946B07CF93DF93EC0160
:1001900061E08CE00E94320761E087E00E94320754
:1001A00061E088E00E94320761E084E00E9432074B
:1001B00010923101CE010E94980060E087E0DF914B
:1001C000CF910C946B07E0EBF0E090819368908303
:1001D00087708093B1001092B30061E08BE00C94C3
:1001E0003207E0EBF0E09081936290838770809318
:1001F000B1001092B40061E083E00C9432071F93C9
:10020000CF93DF931F92CDB7DEB7FC01142F60832D
:10021000418380E391E069830E94C5006981623077
:1002200039F198F4613009F042C080913101837F47
:100230008093310180E391E00E949800812F0F901C
:10024000DF91CF911F910C94E300633009F164308A
:1002500071F5809131018E7B8093310180E391E0D3
:100260000E9498000F90DF91CF911F910C94900005
:10027000809131018D7E8093310180E391E00E9475
:100280009800812F0F90DF91CF911F910C94F10076
:10029000809131018F758093310180E391E00E945C
:1002A00098000F90DF91CF911F910C9488000F90D0
:1002B000DF91CF911F910895FC018081823091F0F0
:1002C00018F4813031F00895833031F0843039F002
:1002D000089573E0E2E008C077E0E5E005C076E06D
:1002E000E0E002C074E0E1E06230D1F0643069F136
:1002F000613009F040C041E050E09A01072E01C092
:10030000220F0A94EAF720950E2E01C0440F0A949A
:10031000EAF780913101842B28232093310127C0F3
:1003200021E030E0A9010E2E01C0440F0A94EAF743
:100330004095809131014823072E01C0220F0A9475
:10034000EAF7422B4093310112C081E090E0AC010A
:1003500001C0440FEA95EAF701C0880F7A95EAF7E1
:10036000842B80959091310198239093310180E303
:1003700091E00C9498000895FC018081823061F036
:1003800018F4813031F00895833049F0843049F019
:1003900008956093B30008956093B400089567BD15
:1003A000089568BD08951092300108951F920F922C
:1003B0000FB60F9211242F933F934F935F936F9338
:1003C0007F938F939F93AF93BF93EF93FF9380910E
:1003D000330187FF05C010928500109284001AC077
:1003E00020913301332727FD30958091320190E031
:1003F000281739077CF480913301992787FD909560
:10040000FC01EE0FFF1FE80FF91FEC5CFE4F80812F
:1004100086FD15C0809133018F5F80933301209159
:100420003301332727FD30958091320190E0281762
:100430003907BCF4809133018C305CF112C080919B
:100440003301992787FD9095FC01EE0FFF1FE80F00
:10045000F91FEC5CFE4F808160E08F730E946B0798
:10046000D9CF8091840090918500049680349C4976
:1004700018F480E49CE905C0809184009091850087
:10048000049690938900809388008FEF80933301C6
:1004900038C02091840030918500809133019927E4
:1004A00087FD9095FC01EE0FFF1FE80FF91FEC5C34
:1004B000FE4F81819281820F931F909389008093D8
:1004C000880080913301992787FD9095FC01EE0FFC
:1004D000FF1FE80FF91FEC5CFE4F808186FF11C003
:1004E00080913301992787FD9095FC01EE0FFF1F46
:1004F000E80FF91FEC5CFE4F808161E08F730E9472
:100500006B07FF91EF91BF91AF919F918F917F9179
:100510006F915F914F913F912F910F900FBE0F9070
:100520001F901895209132012C30A0F431E0320F49
:1005300030933201FC012083822F90E0FC01EE0F0A
:10054000FF1FE80FF91FEC5CFE4F88EB9BE09283E6
:10055000818308952FEFFC0120830895DF92EF92AD
:10056000FF920F931F93CF93DF93EC01D62E7A0166
:10057000890188818C3008F066C061E08D2D0E9471
:1005800032078881A82FB0E0FD01EE0FFF1FEA0FB0
:10059000FB1FEC5CFE4F2D2D2F739081907C922BD6
:1005A000908360E272E06E197F0977FF02C06D5F91
:1005B0007F4F7595679575956795698340E659E016
:1005C000401B510B57FF02C04D5F5F4F559547953C
:1005D000559547954A836CE00E94150C9CE0899FD5
:1005E000B001112420E030E0A901460F571FFA01A5
:1005F000EE0FFF1FE40FF51FEC5CFE4F908196FDA0
:1006000016C02F5F3F4F2C30310571F781110FC09D
:100610001092800082E080938100109285001092F9
:100620008400B19A80916F00826080936F0088810E
:1006300090E0FC01EE0FFF1FE80FF91FEC5CFE4F8E
:100640008081806480838881DF91CF911F910F9199
:10065000FF90EF90DF90089520E639E040E252E00D
:100660000C94AE02FC0180818C3070F5918128E8F9
:1006700030E0291B310997FD3395220F331F220FDC
:10068000331F621773077CF0928128E532E0291B43
:10069000310997FD3395220F331F220F331F621745
:1006A00073070CF49B0122503109220F331F4FB7FF
:1006B000F89490E0FC01EE0FFF1FE80FF91FEC5CCF
:1006C000FE4F328321834FBF08954F925F926F9206
:1006D0007F92AF92BF92CF92DF92EF92FF920F93F1
:1006E0001F93CF93DF93EC01603282E078070CF028
:1006F00040C077FD06C0653B71052CF064EB70E0EF
:1007000002C060E070E0898128E830E0281B3109F0
:1007100087FD3395220F331F220F331F5901CC243D
:10072000B7FCC094DC2C882777FD8095982F2A8110
:1007300048E552E0421B510927FD5395440F551FD0
:10074000440F551F2A01662457FC6094762C7F9233
:100750006F925F924F9214EBE12EF12C00E010E0CB
:1007600020E030E0A9010E94E70A0F900F900F905F
:100770000F90CE01DF91CF911F910F91FF90EF90DD
:10078000DF90CF90BF90AF907F906F905F904F9031
:100790000C9432030895CF93DF93CDB7DEB76497FF
:1007A0000FB6F894DEBF0FBECDBF26E040E855E29D
:1007B00060E070E083E691E00E94840860E080E001
:1007C0000E9432070EE110E080E00E94EC0601502A
:1007D0001109D1F71092590110925801CE010196DA
:1007E0000E949605CE0101960E940B0680E00E94B1
:1007F000EC063C0183E691E00E94A1071816190659
:10080000CCF763E671E0CE010F960E94CD0A60E05E
:1008100070E0CE010F960E94020C8635F1F461E083
:1008200070E0CE010F960E94020CA82EBB24A7FCFC
:10083000B09480E3A81AB1084301C980DA80EB8044
:10084000FC800D811E812F81388549855A856B85F5
:100850007C858D859E850E944604E0916301F09120
:1008600064010280F381E02D43E050E06BE071E031
:1008700083E691E0099568EE73E080E090E00E94E5
:100880008906CE010F960E942E0BB4CF8F929F92B5
:10089000AF92BF92CF92DF92EF92FF920F931F938E
:1008A000CF93DF93CDB7DEB72E970FB6F894DEBFA8
:1008B0000FBECDBFC982DA82EB82FC820D831E831C
:1008C0002F83388749875A876B877C878D879E87D8
:1008D00083E0A816B10409F49EC04CF4A114B1043D
:1008E00089F082E0A816B10409F469C041C084E02F
:1008F000A816B10409F4B9C085E0A816B10409F43A
:10090000DEC036C080E00E94EC069401255D3F4FBA
:10091000281739073CF46CE870E0CE0101960E947C
:10092000050606C060E570E0CE0101960E9408064B
:1009300089E2880E911C80E00E94EC0688159905DA
:10094000D1F7CE0101960E940B062E960FB6F894B1
:10095000DEBF0FBECDBFDF91CF911F910F91FF90F2
:10096000EF90DF90CF90BF90AF909F908F900895C1
:1009700080E00E94EC06881699063CF46CE870E072
:10098000CE0101960E94050606C060E570E0CE012A
:1009900001960E94080654018FEFA81AB80A8FE149
:1009A000881A910880E00E94EC06A816B906D4F3D4
:1009B00080E00E94EC0688159905A4F3C2CF80E080
:1009C0000E94EC06940124523109821793073CF0EF
:1009D0006CE870E0CE0101960E94050606C060E555
:1009E00070E0CE0101960E940806540183E2A81A25
:1009F000B10886E2881A910880E00E94EC068A1508
:100A00009B050CF088C080E00E94EC0688159905D3
:100A10000CF481C096CF80E00E94EC0694012D5822
:100A20003109821793073CF06CE870E0CE01019623
:100A30000E94050606C060E570E0CE0101960E94A6
:100A4000080654018CE8A81AB1088FE8881A9108A2
:100A500080E00E94EC068A159B05D4F780E00E9496
:100A6000EC0688159905A4F36CCF80E00E94EC0693
:100A700094012F5F3109821793073CF06CE870E016
:100A8000CE0101960E94050606C060E570E0CE0129
:100A900001960E94080654018EEFA81AB10881E061
:100AA000881A980A80E00E94EC068A159B05D4F704
:100AB00080E00E94EC0688159905A4F342CF80E0FF
:100AC0000E94EC0694012C563140821793073CF0AB
:100AD0006CE870E0CE0101960E94050606C060E554
:100AE00070E0CE0101960E94080654018BE6A81A18
:100AF00081E0B80A8EE6881A81E0980A80E00E94B8
:100B0000EC068A159B05D4F780E00E94EC06881558
:100B10009905A4F316CF80E00E94EC064AE050E06D
:100B2000BC0183E691E00E94870A66CF8F929F9274
:100B3000AF92BF92CF92DF92EF92FF920F931F93EB
:100B4000CF93DF93EC0142E061E00E94FF006E0171
:100B500082E0C80ED11C42E062E0C6010E94FF00A4
:100B60007E0184E0E80EF11C42E064E0C7010E94CF
:100B7000FF008E010A5F1F4F42E063E0C8010E9440
:100B8000FF004E0188E0880E911CC4010E94920271
:100B90005E018BE0A80EB11CC5010E9492026AE0C2
:100BA00070E0C4010E942C0369E070E0C5010E945E
:100BB0002C0360E0CE010E94BC0160E0C6010E94EF
:100BC000BC0160E0C7010E94BC0160E0C8010E9456
:100BD000BC0164E0CE010E945C0164E0C6010E9499
:100BE0005C0164E0C7010E945C0164E0C801DF9120
:100BF000CF911F910F91FF90EF90DF90CF90BF901A
:100C0000AF909F908F900C945C010B960C946503B1
:100C10000B960C9465036AE570E00B960C946503E3
:100C20001F920F920FB60F9211242F933F938F9321
:100C30009F93AF93BF9380915B0190915C01A091D2
:100C40005D01B0915E0130915A0123E0230F2D37F1
:100C500020F40196A11DB11D05C026E8230F0296C0
:100C6000A11DB11D20935A0180935B0190935C01FB
:100C7000A0935D01B0935E0180915F01909160014E
:100C8000A0916101B09162010196A11DB11D8093F7
:100C90005F0190936001A0936101B0936201BF91E5
:100CA000AF919F918F913F912F910F900FBE0F9019
:100CB0001F9018952FB7F89460915B0170915C01BB
:100CC00080915D0190915E012FBF08953FB7F89428
:100CD00080915F0190916001A0916101B0916201EA
:100CE00026B5A89B05C02F3F19F00196A11DB11D87
:100CF0003FBF6627782F892F9A2F620F711D811DA4
:100D0000911D42E0660F771F881F991F4A95D1F702
:100D10000895CF92DF92EF92FF92CF93DF936B0112
:100D20007C010E946606EB01C114D104E104F104C8
:100D300089F00E94040C0E9466066C1B7D0B683EC5
:100D4000734090F381E0C81AD108E108F108C85156
:100D5000DC4FEACFDF91CF91FF90EF90DF90CF9003
:100D60000895789484B5826084BD84B5816084BD23
:100D700085B5826085BD85B5816085BDEEE6F0E014
:100D8000808181608083E1E8F0E010828081826070
:100D90008083808181608083E0E8F0E080818160F1
:100DA0008083E1EBF0E0808184608083E0EBF0E021
:100DB000808181608083EAE7F0E0808184608083C5
:100DC000808182608083808181608083808180686F
:100DD00080831092C10008958E3008F08E50877085
:100DE00020910A0190E4299F90011124822B809385
:100DF0007C0080917A00806480937A0080917A00F0
:100E000086FDFCCF809178002091790090E0922BB4
:100E10000895833081F028F4813099F08230A1F078
:100E200008958730A9F08830B9F08430D1F48091EA
:100E300080008F7D03C0809180008F778093800039
:100E4000089584B58F7702C084B58F7D84BD0895E1
:100E50008091B0008F7703C08091B0008F7D809328
:100E6000B0000895CF93DF9390E0FC01E458FF4F6A
:100E70002491FC01E057FF4F8491882349F190E0D1
:100E8000880F991FFC01E255FF4FA591B4918C5535
:100E90009F4FFC01C591D4919FB7611108C0F89490
:100EA0008C91209582238C93888182230AC06230A2
:100EB00051F4F8948C91322F309583238C93888150
:100EC000822B888304C0F8948C91822B8C939FBFD3
:100ED000DF91CF9108950F931F93CF93DF931F92CC
:100EE000CDB7DEB7282F30E0F901E859FF4F8491E4
:100EF000F901E458FF4F1491F901E057FF4F0491B5
:100F00000023C9F0882321F069830E9409076981C1
:100F1000E02FF0E0EE0FFF1FEC55FF4FA591B491CD
:100F20009FB7F8948C91611103C01095812301C083
:100F3000812B8C939FBF0F90DF91CF911F910F91C9
:100F40000895FC01818D228D90E0805C9F4F821B73
:100F500091098F7399270895FC01918D828D9817BF
:100F600031F0828DE80FF11D858D90E008958FEFAF
:100F70009FEF0895FC01918D828D981761F0828D0D
:100F8000DF01A80FB11D5D968C91928D9F5F9F73BD
:100F9000928F90E008958FEF9FEF08958EE399E090
:100FA000892B49F080E090E0892B29F00E943E09CE
:100FB00081110C9400000895FC01848DDF01A80FBD
:100FC000B11DA35ABF4F2C91848D90E001968F7371
:100FD0009927848FA689B7892C93A089B1898C9190
:100FE00080648C93938D848D981306C00288F38956
:100FF000E02D80818F7D80830895CF93DF93EC0176
:10100000888D8823C9F0EA89FB89808185FD05C028
:10101000A889B9898C9186FD0FC00FB607FCF5CF62
:10102000808185FFF2CFA889B9898C9185FFEDCFAA
:10103000CE010E94DC07E7CFDF91CF910895CF92D8
:10104000DF92FF920F931F93CF93DF931F92CDB741
:10105000DEB76C0181E0D60158968C9358975B9669
:101060009C915B975C968C915C97981307C0509607
:10107000ED91FC915197808185FD2EC0F601038D85
:1010800010E00F5F1F4F0F731127F02EF601848DB4
:10109000F81211C00FB607FCF9CFD6015096ED91AA
:1010A000FC915197808185FFF1CFC60169830E9431
:1010B000DC076981EBCF838DE80FF11DE35AFF4F09
:1010C0006083D6015B960C935B975296ED91FC91F1
:1010D0005397808180620CC0D6015696ED91FC91A9
:1010E000579760835096ED91FC9151978081806471
:1010F000808381E090E00F90DF91CF911F910F915D
:10110000FF90DF90CF900895BF92CF92DF92EF9241
:10111000FF92CF93DF93EC016A017B01B22EE88945
:10112000F98982E08083411581EE580761057105D8
:10113000A1F060E079E08DE390E0A70196010E94C4
:10114000210C215031094109510956954795379590
:101150002795211580E1380798F0E889F9891082F0
:1011600060E874E88EE190E0A70196010E94210CEE
:1011700021503109410951095695479537952795D1
:10118000EC85FD853083EE85FF852083188EEC8904
:10119000FD89B082EA89FB89808180618083EA8948
:1011A000FB89808188608083EA89FB8980818068EF
:1011B0008083EA89FB8980818F7D8083DF91CF9155
:1011C000FF90EF90DF90CF90BF9008951F920F9205
:1011D0000FB60F9211242F938F939F93EF93FF934A
:1011E000E0917301F09174018081E0917901F091B7
:1011F0007A0182FD12C0908180917C018F5F8F7394
:1012000020917D01821751F0E0917C01F0E0ED59D1
:10121000FE4F958F80937C0101C08081FF91EF91FB
:101220009F918F912F910F900FBE0F901F90189547
:101230001F920F920FB60F9211242F933F934F934B
:101240005F936F937F938F939F93AF93BF93EF932E
:10125000FF9383E691E00E94DC07FF91EF91BF913D
:10126000AF919F918F917F916F915F914F913F913E
:101270002F910F900FBE0F901F90189583E691E06D
:101280000E94A10721E0892B09F420E0822F089514
:10129000109266011092650188EE93E0A0E0B0E044
:1012A0008093670190936801A0936901B0936A01EC
:1012B00083E191E0909364018093630185EC90E079
:1012C0009093700180936F0184EC90E09093720191
:1012D0008093710180EC90E090937401809373018E
:1012E00081EC90E0909376018093750182EC90E020
:1012F000909378018093770186EC90E090937A0147
:101300008093790110927C0110927D0110927E01F0
:1013100010927F01089508950E94B1060E948B09E2
:101320000E94CB03CEECD7E00E94CA032097E1F3E2
:101330000E94CE07F9CFCF92DF92EF92FF920F93E8
:101340001F93CF93DF936C017A01EB01E60EF71E3A
:1013500000E010E0CE15DF0561F06991D601ED9156
:10136000FC910190F081E02DC6010995080F191F2D
:10137000F1CFC801DF91CF911F910F91FF90EF90B6
:10138000DF90CF9008956115710581F0DB010D901C
:101390000020E9F7AD0141505109461B570BDC0114
:1013A000ED91FC910280F381E02D099480E090E0C2
:1013B0000895DC01ED91FC910190F081E02D0994FC
:1013C0006FE171E00C94C3098F929F92AF92BF922C
:1013D000CF92DF92EF92FF920F931F93CF93DF9301
:1013E000CDB7DEB7A1970FB6F894DEBF0FBECDBF65
:1013F0007C01C42EE52FCB01D22E19A221E02D15A0
:1014000010F02AE0D22E8E010F5D1F4F8D2C912CF3
:10141000A12CB12C6C2D7E2FA50194010E94210CD2
:101420008C2DD29E80191124015011098A3014F498
:10143000805D01C0895CF80180832115310541057B
:10144000510521F0C22EE32FCA01E4CFB801C70134
:101450000E94C309A1960FB6F894DEBF0FBECDBFA0
:10146000DF91CF911F910F91FF90EF90DF90CF9080
:10147000BF90AF909F908F900895CF92DF92EF92A0
:10148000FF920F931F93CF93DF93EC016A017B01CF
:101490002115310579F4E881F9810190F081E02D81
:1014A000642FDF91CF911F910F91FF90EF90DF900C
:1014B000CF9009942A303105E9F477FF1AC06DE224
:1014C0000E94D9098C0144275527BA014C195D099E
:1014D0006E097F092AE0CE010E94E409800F911F66
:1014E000DF91CF911F910F91FF90EF90DF90CF9000
:1014F00008952AE0B701A601CE01DF91CF911F9197
:101500000F91FF90EF90DF90CF900C94E4090F9330
:101510001F93CF93DF93EC019A01AB01662757FD30
:101520006095762F0E943D0A8C01CE010E94E00951
:10153000800F911FDF91CF911F910F9108950F930D
:101540001F93CF93DF93EC010E945A066887798737
:101550008A879B87E881F9810680F781E02DCE019B
:10156000099597FF15C00E945A06088519852A8596
:101570003B85601B710B820B930B0C811D812E81AF
:101580003F81601771078207930720F38FEF9FEF6A
:10159000DF91CF911F910F9108950F931F93CF93D8
:1015A000DF93EC018B0161E271E00E949C0BC801AA
:1015B0000E949F0A97FD05C0682FCE010E94DE0B96
:1015C000F6CFCE01DF91CF911F910F9108954F92E9
:1015D0005F926F927F92AF92BF92CF92DF92EF9223
:1015E000FF920F931F93CF93DF93CDB7DEB72901FF
:1015F0003A01621B730B840B950B29893A894B893D
:101600005C892A193B094C095D09298B3A8B4B8B64
:101610005C8B9B01AC0169897A898B899C890E94CA
:10162000050CE418F50806091709A80197010E949E
:10163000430C2A0D3B1D4C1D5D1DCA01B901DF91F4
:10164000CF911F910F91FF90EF90DF90CF90BF90BF
:10165000AF907F906F905F904F900895FC018081D4
:1016600091810C941A0DCF93DF93EC0188819981BD
:10167000009711F00E941A0D198218821D821C8297
:101680001B821A82DF91CF9108950F931F93CF93FE
:10169000DF93EC018B016F5F7F4F888199810E94FE
:1016A000A90D009731F0998388831B830A8381E019
:1016B00001C080E0DF91CF911F910F910895CF93EA
:1016C000DF93EC0188819981892B29F08A819B81A4
:1016D0008617970760F4CE010E94450B882341F0DE
:1016E0008C819D81892B19F4E881F981108281E038
:1016F000DF91CF910895EF92FF920F931F93CF93B5
:10170000DF93EC017B018A01BA010E945F0B81111A
:1017100004C0CE010E94330B07C01D830C83B701A8
:10172000888199810E947C0ECE01DF91CF911F911B
:101730000F91FF90EF900895FC01118210821382A7
:101740001282158214826115710559F0FB01019016
:101750000020E9F7AF0141505109461B570B0C948B
:101760007B0B0895EF92FF920F931F93CF93DF931C
:10177000EC017B010C811D816115710511F480E084
:1017800016C04115510591F0040F151FB8010E94B4
:101790005F0B8823A1F3288139818C819D81B7015A
:1017A000820F931F0E947C0E1D830C8381E0DF91CA
:1017B000CF911F910F91FF90EF900895CF93DF93FA
:1017C00000D0CDB7DEB769831A8241E050E0BE0198
:1017D0006F5F7F4F0E94B20B0F900F90DF91CF9100
:1017E0000895FC01248135816217730748F48081D4
:1017F0009181009729F0FC01E60FF71F8081089581
:1018000080E008950C94F10B0895DB018F939F9372
:101810000E94770CBF91AF91A29F800D911DA39F55
:10182000900DB29F900D11240895991B79E004C08A
:10183000991F961708F0961B881F7A95C9F780950F
:101840000895A1E21A2EAA1BBB1BFD010DC0AA1F01
:10185000BB1FEE1FFF1FA217B307E407F50720F019
:10186000A21BB30BE40BF50B661F771F881F991F94
:101870001A9469F760957095809590959B01AC01DD
:10188000BD01CF010895052E97FB1EF400940E9420
:101890005A0C57FD07D00E94210C07FC03D04EF4D0
:1018A0000C945A0C50954095309521953F4F4F4FD1
:1018B0005F4F089590958095709561957F4F8F4FFC
:1018C0009F4F0895EE0FFF1F0590F491E02D0994AE
:1018D000A29FB001B39FC001A39F700D811D112471
:1018E000911DB29F700D811D1124911D08950E94BC
:1018F000680CA59F900DB49F900DA49F800D911D25
:1019000011240895CF93DF938230910510F482E083
:1019100090E0E0910202F091030220E030E0A0E0CC
:10192000B0E0309739F14081518148175907B8F03C
:101930004817590771F482819381109729F0139603
:101940009C938E9312972CC0909303028093020273
:1019500027C02115310531F04217530718F0A901AE
:10196000DB0101C0EF019A01BD01DF010280F381BB
:10197000E02DD7CF21153105F9F0281B390B243084
:10198000310580F48A819B816115710521F0FB018D
:101990009383828304C09093030280930202FE012A
:1019A000329644C0FE01E20FF31F819391932250BF
:1019B0003109398328833AC0209100023091010215
:1019C000232B41F420910201309103013093010255
:1019D0002093000220910001309101012115310571
:1019E00041F42DB73EB74091040150910501241BED
:1019F000350BE0910002F0910102E217F307A0F429
:101A00002E1B3F0B2817390778F0AC014E5F5F4F54
:101A10002417350748F04E0F5F1F50930102409383
:101A200000028193919302C0E0E0F0E0CF01DF91EA
:101A3000CF910895CF93DF93009709F487C0FC01FD
:101A4000329713821282C0910202D0910302209732
:101A500081F420813181280F391F809100029091FB
:101A600001028217930779F5F0930102E0930002D7
:101A70006DC0DE0120E030E0AE17BF0750F41296D3
:101A80004D915C9113979D014115510509F1DA01C2
:101A9000F3CFB383A28340815181840F951F8A17AE
:101AA0009B0771F48D919C911197840F951F02965D
:101AB0009183808312968D919C9113979383828357
:101AC0002115310529F4F0930302E09302023EC090
:101AD000D9011396FC93EE9312974D915D91A40F4B
:101AE000B51FEA17FB0779F480819181840F951F58
:101AF0000296D90111969C938E93828193811396BD
:101B00009C938E931297E0E0F0E08A819B8100978E
:101B100019F0FE01EC01F9CFCE010296288139813E
:101B2000820F931F2091000230910102281739077C
:101B300069F4309729F4109203021092020202C055
:101B400013821282D0930102C0930002DF91CF91E1
:101B50000895A0E0B0E0EFEAFDE00C94870EEC0100
:101B6000CB01209719F40E94820CB8C0FE01E60F49
:101B7000F71F9E0122503109E217F30708F4ACC0A9
:101B8000D9010D911C91119706171707B8F0053070
:101B9000110508F49FC0A801445051094617570782
:101BA00008F498C002501109061B170B01931193FA
:101BB0006D937C93CF010E941A0D8CC05B01A01A1B
:101BC000B10A4E01800E911EA0910202B091030253
:101BD000612C712C60E070E0109709F449C0A815E1
:101BE000B905C9F5ED90FC901197670142E0C40E6C
:101BF000D11CCA14DB0478F147018A189B086401E0
:101C000042E0C40ED11C1296BC9012971396AC9170
:101C1000B5E0CB16D10440F0B282A38391828082DA
:101C2000D9018D939C9309C00E5F1F4F0E0D1F1D90
:101C3000F90111830083EB2DFA2F6115710531F045
:101C4000DB011396FC93EE93129744C0F0930302CA
:101C5000E09302023FC06D917C9111976616770662
:101C600008F43B01BD0112960D90BC91A02DB4CF9C
:101C7000609100027091010268157905E9F4681617
:101C80007906D0F4409100015091010141155105B0
:101C900041F44DB75EB76091040170910501461B98
:101CA000570BE417F507C0F4F0930102E09300022C
:101CB000F901918380830EC00E94820C7C01009701
:101CC00059F0A801BE010E94730ECE010E941A0DA8
:101CD000C70104C0CE0102C080E090E0CDB7DEB7FE
:101CE000EEE00C94A30EFB01DC0102C001900D920A
:101CF00041505040D8F70895FB01DC0101900D924E
:101D00000020E1F708952F923F924F925F926F92D9
:101D10007F928F929F92AF92BF92CF92DF92EF927B
:101D2000FF920F931F93CF93DF93CDB7DEB7CA1BFC
:101D3000DB0B0FB6F894DEBF0FBECDBF09942A8827
:101D4000398848885F846E847D848C849B84AA84CF
:101D5000B984C884DF80EE80FD800C811B81AA815C
:101D6000B981CE0FD11D0FB6F894DEBF0FBECDBF27
:081D7000ED010895F894FFCF86
:101D780000000402800001000000015245430000F9
:101D88000000001F089B09A107BA07AC07FD070D53
:101D98000A006E616E00696E66006F7666002E003E
:00000001FF
