:100000000C945E000C9486000C9486000C94860080
:100010000C9486000C9486000C9486000C94860048
:100020000C9486000C9486000C9486000C94D601E7
:100030000C9486000C9486000C9486000C94860028
:100040000C94A9040C9486000C9473070C94A507D7
:100050000C9486000C9486000C9486000C94860008
:100060000C9486000C948600000000080002010039
:100070000003040700000000000000000102040863
:100080001020408001020408102001020408102002
:10009000040404040404040402020202020203032E
:1000A0000303030300000000250028002B000000CC
:1000B0000000240027002A00D301D50711241FBE09
:1000C000CFEFD8E0DEBFCDBF11E0A0E0B1E0EEE2BF
:1000D000F2E102C005900D92A631B107D9F721E0F7
:1000E000A6E1B1E001C01D92A63EB207E1F710E023
:1000F000CCEBD0E004C02297FE010E94F708C83B79
:10010000D107C9F70E9419080C9415090C94000036
:1001100084B5836884BD17BC61E086E00C94BF059C
:1001200084B5836284BD18BC61E085E00C94BF0592
:10013000CF93DF9360E08CE00E94F80560E088E0F8
:100140000E94F805C7E0D0E060E084E00E94F80576
:100150008091170190E00C2E02C0959587950A9426
:10016000E2F780FF02C061E001C060E088E00E9429
:10017000F80561E084E00E94F805219728F761E026
:100180008CE0DF91CF910C94F805CF93DF93EC01D5
:1001900061E08CE00E94BF0561E087E00E94BF053E
:1001A00061E088E00E94BF0561E084E00E94BF0535
:1001B00010921701CE010E94980060E087E0DF9165
:1001C000CF910C94F805E0EBF0E090819368908378
:1001D00087708093B1001092B30061E08BE00C94C3
:1001E000BF05E0EBF0E0908193629083877080938D
:1001F000B1001092B40061E083E00C94BF051F933E
:10020000CF93DF931F92CDB7DEB7FC01142F60832D
:10021000418386E191E069830E94C5006981623073
:1002200039F198F4613009F042C080911701837F61
:100230008093170186E191E00E949800812F0F9032
:10024000DF91CF911F910C94E300633009F164308A
:1002500071F5809117018E7B8093170186E191E003
:100260000E9498000F90DF91CF911F910C94900005
:10027000809117018D7E8093170186E191E00E94A5
:100280009800812F0F90DF91CF911F910C94F10076
:10029000809117018F758093170186E191E00E948C
:1002A00098000F90DF91CF911F910C9488000F90D0
:1002B000DF91CF911F910895FC018081823091F0F0
:1002C00018F4813031F00895833031F0843039F002
:1002D000089573E0E2E008C077E0E5E005C076E06D
:1002E000E0E002C074E0E1E06230D1F0643069F136
:1002F000613009F040C041E050E09A01072E01C092
:10030000220F0A94EAF720950E2E01C0440F0A949A
:10031000EAF780911701842B28232093170127C027
:1003200021E030E0A9010E2E01C0440F0A94EAF743
:100330004095809117014823072E01C0220F0A948F
:10034000EAF7422B4093170112C081E090E0AC0124
:1003500001C0440FEA95EAF701C0880F7A95EAF7E1
:10036000842B80959091170198239093170186E133
:1003700091E00C9498000895FC018081823061F036
:1003800018F4813031F00895833049F0843049F019
:1003900008956093B30008956093B400089567BD15
:1003A000089568BD08951092160108951F920F9246
:1003B0000FB60F9211242F933F934F935F936F9338
:1003C0007F938F939F93AF93BF93EF93FF9380910E
:1003D000190187FF05C010928500109284001AC091
:1003E00020911901332727FD30958091180190E065
:1003F000281739077CF480911901992787FD90957A
:10040000FC01EE0FFF1FE80FF91FE65EFE4F808133
:1004100086FD15C0809119018F5F8093190120918D
:100420001901332727FD30958091180190E0281796
:100430003907BCF4809119018C305CF112C08091B5
:100440001901992787FD9095FC01EE0FFF1FE80F1A
:10045000F91FE65EFE4F808160E08F730E94F80511
:10046000D9CF8091840090918500049680349C4976
:1004700018F480E49CE905C0809184009091850087
:10048000049690938900809388008FEF80931901E0
:1004900038C02091840030918500809119019927FE
:1004A00087FD9095FC01EE0FFF1FE80FF91FE65E38
:1004B000FE4F81819281820F931F909389008093D8
:1004C000880080911901992787FD9095FC01EE0F16
:1004D000FF1FE80FF91FE65EFE4F808186FF11C007
:1004E00080911901992787FD9095FC01EE0FFF1F60
:1004F000E80FF91FE65EFE4F808161E08F730E9476
:10050000F805FF91EF91BF91AF919F918F917F91EE
:100510006F915F914F913F912F910F900FBE0F9070
:100520001F901895209118012C30A0F431E0320F63
:1005300030931801FC012083822F90E0FC01EE0F24
:10054000FF1FE80FF91FE65EFE4F88EB9BE09283EA
:10055000818308952FEFFC0120830895DF92EF92AD
:10056000FF920F931F93CF93DF93EC01D62E7A0166
:10057000890188818C3008F066C061E08D2D0E9471
:10058000BF058881A82FB0E0FD01EE0FFF1FEA0F25
:10059000FB1FE65EFE4F2D2D2F739081907C922BDA
:1005A000908360E272E06E197F0977FF02C06D5F91
:1005B0007F4F7595679575956795698340E659E016
:1005C000401B510B57FF02C04D5F5F4F559547953C
:1005D000559547954A836CE00E94A8089CE0899F46
:1005E000B001112420E030E0A901460F571FFA01A5
:1005F000EE0FFF1FE40FF51FE65EFE4F908196FDA4
:1006000016C02F5F3F4F2C30310571F781110FC09D
:100610001092800082E080938100109285001092F9
:100620008400B19A80916F00826080936F0088810E
:1006300090E0FC01EE0FFF1FE80FF91FE65EFE4F92
:100640008081806480838881DF91CF911F910F9199
:10065000FF90EF90DF90089520E639E040E252E00D
:100660000C94AE02FC0180818C3070F5918128E8F9
:1006700030E0291B310997FD3395220F331F220FDC
:10068000331F621773077CF0928128E532E0291B43
:10069000310997FD3395220F331F220F331F621745
:1006A00073070CF49B0122503109220F331F4FB7FF
:1006B000F89490E0FC01EE0FFF1FE80FF91FE65ED3
:1006C000FE4F328321834FBF08954F925F926F9206
:1006D0007F92AF92BF92CF92DF92EF92FF920F93F1
:1006E0001F93CF93DF93EC01603282E078070CF028
:1006F00040C077FD06C0653B71052CF064EB70E0EF
:1007000002C060E070E0898128E830E0281B3109F0
:1007100087FD3395220F331F220F331F5901CC243D
:10072000B7FCC094DC2C882777FD8095982F2A8110
:1007300048E552E0421B510927FD5395440F551FD0
:10074000440F551F2A01662457FC6094762C7F9233
:100750006F925F924F9214EBE12EF12C00E010E0CB
:1007600020E030E0A9010E9450080F900F900F90F8
:100770000F90CE01DF91CF911F910F91FF90EF90DD
:10078000DF90CF90BF90AF907F906F905F904F9031
:100790000C943203CF93DF93CDB7DEB72E970FB60D
:1007A000F894DEBF0FBECDBF26E040EC52E160E022
:1007B00070E089E491E00E94110760E082E20E940B
:1007C000BF0561E080E20E94BF0560E084E30E9413
:1007D000BF0560E08FE00E94BF0561E085E30E94F5
:1007E000BF0560E08CE20E94BF0560E08EE20E94DF
:1007F000BF0560E08FE20E94BF0560E081E30E94D8
:10080000BF0560E08DE20E94BF0560E08BE20E94C0
:10081000BF0510923F0110923E01CE0101960E9449
:100820003204CE0101960E94A4048FE00E94790553
:100830006CE870E0CE0101960E94A1046CED75E0B9
:1008400080E090E00E941605CE0101960E94A4046B
:100850002E960FB6F894DEBF0FBECDBFDF91CF91BD
:10086000089508958F929F92AF92BF92CF92DF9298
:10087000EF92FF920F931F93CF93DF93EC0142E02F
:1008800061E00E94FF006E0182E0C80ED11C42E0D0
:1008900062E0C6010E94FF007E0184E0E80EF11CC8
:1008A00042E064E0C7010E94FF008E010A5F1F4F13
:1008B00042E063E0C8010E94FF004E0188E0880E1C
:1008C000911CC4010E9492025E018BE0A80EB11C33
:1008D000C5010E9492026AE070E0C4010E942C03EC
:1008E00069E070E0C5010E942C0360E0CE010E9427
:1008F000BC0160E0C6010E94BC0160E0C7010E942B
:10090000BC0160E0C8010E94BC0164E0CE010E940D
:100910005C0164E0C6010E945C0164E0C7010E94C2
:100920005C0164E0C801DF91CF911F910F91FF90AE
:10093000EF90DF90CF90BF90AF909F908F900C94EE
:100940005C010B960C9465036AE570E00B960C94C1
:1009500065031F920F920FB60F9211242F933F93AE
:100960008F939F93AF93BF938091410190914201E8
:10097000A0914301B09144013091400123E0230F45
:100980002D3720F40196A11DB11D05C026E8230FC7
:100990000296A11DB11D20934001809341019093C7
:1009A0004201A0934301B09344018091450190918D
:1009B0004601A0914701B09148010196A11DB11DCA
:1009C0008093450190934601A0934701B09348015D
:1009D000BF91AF919F918F913F912F910F900FBE3B
:1009E0000F901F9018953FB7F89480914501909112
:1009F0004601A0914701B091480126B5A89B05C0CA
:100A00002F3F19F00196A11DB11D3FBF6627782F1A
:100A1000892F9A2F620F711D811D911D42E0660F73
:100A2000771F881F991F4A95D1F70895CF92DF92BB
:100A3000EF92FF92CF93DF936B017C010E94F3044E
:100A4000EB01C114D104E104F10489F00E9497087C
:100A50000E94F3046C1B7D0B683E734090F381E0B1
:100A6000C81AD108E108F108C851DC4FEACFDF917C
:100A7000CF91FF90EF90DF90CF900895789484B558
:100A8000826084BD84B5816084BD85B5826085BD8A
:100A900085B5816085BDEEE6F0E080818160808370
:100AA000E1E8F0E010828081826080838081816053
:100AB0008083E0E8F0E0808181608083E1EBF0E01A
:100AC000808184608083E0EBF0E0808181608083BE
:100AD000EAE7F0E0808184608083808182608083A7
:100AE0008081816080838081806880831092C100D2
:100AF00008958E3008F08E5087702091040190E4A4
:100B0000299F90011124822B80937C0080917A0090
:100B1000806480937A0080917A0086FDFCCF80917A
:100B200078002091790090E0922B0895833081F035
:100B300028F4813099F08230A1F008958730A9F02F
:100B40008830B9F08430D1F4809180008F7D03C06B
:100B5000809180008F7780938000089584B58F778F
:100B600002C084B58F7D84BD08958091B0008F77D9
:100B700003C08091B0008F7D8093B0000895CF9323
:100B8000DF9390E0FC01E458FF4F2491FC01E05713
:100B9000FF4F8491882349F190E0880F991FFC0151
:100BA000E255FF4FA591B4918C559F4FFC01C59123
:100BB000D4919FB7611108C0F8948C91209582233D
:100BC0008C93888182230AC0623051F4F8948C910E
:100BD000322F309583238C938881822B888304C0A5
:100BE000F8948C91822B8C939FBFDF91CF910895C5
:100BF0000F931F93CF93DF931F92CDB7DEB7282FAC
:100C000030E0F901E859FF4F8491F901E458FF4FB2
:100C10001491F901E057FF4F04910023C9F0882394
:100C200021F069830E9496056981E02FF0E0EE0FC4
:100C3000FF1FEC55FF4FA591B4919FB7F8948C918D
:100C4000611103C01095812301C0812B8C939FBF3C
:100C50000F90DF91CF911F910F910895FC01818D2D
:100C6000228D90E0805C9F4F821B91098F739927A2
:100C70000895FC01918D828D981731F0828DE80FD7
:100C8000F11D858D90E008958FEF9FEF0895FC0191
:100C9000918D828D981761F0828DDF01A80FB11DB3
:100CA0005D968C91928D9F5F9F73928F90E00895D7
:100CB0008FEF9FEF08958BEC97E0892B49F080E050
:100CC00090E0892B29F00E94CB0781110C94000041
:100CD0000895FC01848DDF01A80FB11DA35ABF4FF9
:100CE0002C91848D90E001968F739927848FA6892B
:100CF000B7892C93A089B1898C9180648C93938D52
:100D0000848D981306C00288F389E02D80818F7D41
:100D100080830895CF93DF93EC01888D8823C9F0F9
:100D2000EA89FB89808185FD05C0A889B9898C91F4
:100D300086FD0FC00FB607FCF5CF808185FFF2CF8F
:100D4000A889B9898C9185FFEDCFCE010E946906F3
:100D5000E7CFDF91CF910895CF92DF92FF920F936B
:100D60001F93CF93DF931F92CDB7DEB76C0181E065
:100D7000D60158968C9358975B969C915B975C969E
:100D80008C915C97981307C05096ED91FC91519708
:100D9000808185FD2EC0F601038D10E00F5F1F4F8F
:100DA0000F731127F02EF601848DF81211C00FB6C3
:100DB00007FCF9CFD6015096ED91FC9151978081B7
:100DC00085FFF1CFC60169830E9469066981EBCF77
:100DD000838DE80FF11DE35AFF4F6083D6015B96C8
:100DE0000C935B975296ED91FC91539780818062B2
:100DF0000CC0D6015696ED91FC91579760835096A2
:100E0000ED91FC91519780818064808381E090E036
:100E10000F90DF91CF911F910F91FF90DF90CF90B6
:100E20000895BF92CF92DF92EF92FF92CF93DF931C
:100E3000EC016A017B01B22EE889F98982E08083A6
:100E4000411581EE580761057105A1F060E079E078
:100E50008DE390E0A70196010E94B408215031096A
:100E6000410951095695479537952795211580E1F8
:100E7000380798F0E889F989108260E874E88EE113
:100E800090E0A70196010E94B40821503109410960
:100E900051095695479537952795EC85FD85308303
:100EA000EE85FF852083188EEC89FD89B082EA8962
:100EB000FB89808180618083EA89FB8980818860E9
:100EC0008083EA89FB89808180688083EA89FB8945
:100ED00080818F7D8083DF91CF91FF90EF90DF90B5
:100EE000CF90BF9008951F920F920FB60F921124CA
:100EF0002F938F939F93EF93FF93E0915901F0917C
:100F00005A018081E0915F01F091600182FD12C081
:100F10009081809162018F5F8F73209163018217AE
:100F200051F0E0916201F0E0E75BFE4F958F809316
:100F3000620101C08081FF91EF919F918F912F916C
:100F40000F900FBE0F901F9018951F920F920FB623
:100F50000F9211242F933F934F935F936F937F933F
:100F60008F939F93AF93BF93EF93FF9389E491E0A7
:100F70000E946906FF91EF91BF91AF919F918F9170
:100F80007F916F915F914F913F912F910F900FBE85
:100F90000F901F90189589E491E00E942E0621E0A1
:100FA000892B09F420E0822F089510924C011092B1
:100FB0004B0188EE93E0A0E0B0E080934D01909368
:100FC0004E01A0934F01B093500189E091E09093BE
:100FD0004A018093490185EC90E0909356018093FB
:100FE000550184EC90E0909358018093570180EC78
:100FF00090E090935A018093590181EC90E0909396
:101000005C0180935B0182EC90E090935E018093A1
:101010005D0186EC90E09093600180935F011092F7
:1010200062011092630110926401109265010895AB
:1010300008950E943E050E9418080E94CA03CBE54D
:10104000D6E00E9431042097E1F30E945B06F9CFBD
:10105000CF92DF92EF92FF920F931F93CF93DF9384
:101060006C017A01EB01E60EF71E00E010E0CE15F0
:10107000DF0561F06991D601ED91FC910190F0815D
:10108000E02DC6010995080F191FF1CFC801DF91A6
:10109000CF911F910F91FF90EF90DF90CF90089527
:1010A0004F925F926F927F92AF92BF92CF92DF92F8
:1010B000EF92FF920F931F93CF93DF93CDB7DEB7DD
:1010C00029013A01621B730B840B950B29893A891C
:1010D0004B895C892A193B094C095D09298B3A8B9C
:1010E0004B8B5C8B9B01AC0169897A898B899C89CC
:1010F0000E949808E418F50806091709A801970145
:101100000E94D6082A0D3B1D4C1D5D1DCA01B90168
:10111000DF91CF911F910F91FF90EF90DF90CF90D3
:10112000BF90AF907F906F905F904F90089508951B
:10113000DB018F939F930E940A09BF91AF91A29FF9
:10114000800D911DA39F900DB29F900D11240895C5
:10115000991B79E004C0991F961708F0961B881F09
:101160007A95C9F780950895A1E21A2EAA1BBB1B98
:10117000FD010DC0AA1FBB1FEE1FFF1FA217B30763
:10118000E407F50720F0A21BB30BE40BF50B661F79
:10119000771F881F991F1A9469F76095709580953D
:1011A00090959B01AC01BD01CF010895052E97FBE1
:1011B0001EF400940E94ED0857FD07D00E94B40869
:1011C00007FC03D04EF40C94ED08509540953095F3
:1011D00021953F4F4F4F5F4F0895909580957095A3
:1011E00061957F4F8F4F9F4F0895EE0FFF1F059022
:1011F000F491E02D0994A29FB001B39FC001A39F79
:10120000700D811D1124911DB29F700D811D11243F
:10121000911D08950E94FB08A59F900DB49F900D0D
:0E122000A49F800D911D11240895F894FFCF16
:10122E00010000000100000000AC0628082E064751
:06123E000639068A0600D5
:00000001FF
