:100000000C9464000C948C000C948C000C948C0068
:100010000C948C000C948C000C948C000C948C0030
:100020000C948C000C948C000C948C000C948C0020
:100030000C948C000C948C000C948C000C948C0010
:100040000C9495030C948C000C9482060C94B406CA
:100050000C948C000C948C000C948C000C948C00F0
:100060000C948C000C948C0000000008000201002D
:100070000003040700000000000000000102040863
:100080001020408001020408102001020408102002
:10009000040404040404040402020202020203032E
:1000A00003030303000000002300260029000000D2
:1000B0000000250028002B0000000000240027007D
:1000C0002A006503E406860311241FBECFEFD8E0A3
:1000D000DEBFCDBF11E0A0E0B1E0E6E9F4E102C08F
:1000E00005900D92A63AB107D9F722E0A6EAB1E051
:1000F00001C01D92A73CB207E1F710E0C6ECD0E0CA
:1001000004C02297FE010E940908C23CD107C9F72A
:100110000E9428070C943E0A0C940000CF93CFB79E
:10012000F8948091A601811127C0EAE9F0E084915A
:10013000E6E8F0E09491E82FF0E0EE0FFF1FE854BE
:10014000FF4FA591B4918C91892321F461E08AE05D
:100150000E94DE0461E08AE00E94A5048CB5806103
:100160008CBD8CB580648CBD61E08DE00E94A504DF
:1001700061E08BE00E94A5048091A6018F5F8093CF
:10018000A601CFBFCF9108950F931F93CF93DF9315
:10019000EC01662359F00E94DF0369837A838B8325
:1001A0009C83DF91CF911F910F9108950E94DF03EF
:1001B00009811A812B813C81601B710B820B930B8F
:1001C000623371058105910530F763E070E080E0EE
:1001D00090E00E940E04EACF60E00C94C400FC01A1
:1001E00013AA14AA15AA16AA1182128213821482C3
:1001F000411551056105710521F0CB01BA010C943F
:100200000E040895FB01BA01A901DC01D296FC930A
:10021000EE93D19726E0CF010C9420061F93CF9345
:10022000DF93EC01162F66E071E089A99AA90E947C
:100230005F074AE050E0612F89A99AA90E94DD0773
:100240006DE071E089A99AA90E945F0762E370E0FE
:1002500080E090E0DF91CF911F910C940E041F93EA
:10026000CF93DF93EC01162F8D81882389F189A923
:100270009AA9DC01ED91FC910480F581E02D0995AE
:10028000892BA9F307C02637310519F12835310527
:1002900009F41D8289A99AA9DC01ED91FC910480E1
:1002A000F581E02D09951816190694F489A99AA9E3
:1002B000DC01ED91FC910680F781E02D09959C0110
:1002C000332723363105F9F6612FCE010E940E0146
:1002D00083E6DF91CF911F9108950F931F93CF93E2
:1002E000DF931F92CDB7DEB78C01662349F081E022
:1002F000F801858360E0C80149830E942F0149818C
:10030000F80145830F90DF91CF911F910F910895D0
:100310006115710581F0DB010D900020E9F7AD0159
:1003200041505109461B570BDC01ED91FC910280B5
:10033000F381E02D099480E090E008958EBD0000E7
:100340000DB407FEFDCF8EB508951F93CF93DF93B5
:10035000FC0123A92223A1F085A991E0980F95AB78
:10036000DF01A80FB11DA80FB11D53964C915397F3
:1003700054963C91215023AB903199F415AA11C0A9
:1003800080898823F9F0228991E0920F928BDF0116
:10039000A20FB11D1C918150808B903129F4128ADB
:1003A00003C0842F932F15C08BE50E949E01282F38
:1003B00030E0D22FCC27812F0E949E019E01282B56
:1003C000C90107C08AE50E949E01282F30E010E095
:1003D000F0CFDF91CF911F91089540ED57E060E09D
:1003E00070E087EA91E00E94EF0020E835E240E00B
:1003F00050E066E272E087EA91E00E94020187EA3B
:1004000091E00E94EC006EE571E08091D80190913E
:10041000D9010E945F076AE070E080E090E00E94EE
:100420000E0441E060E087EA91E00E946D0126E061
:1004300040E855E260E070E086E292E00E9420062B
:1004400061E08CE00E94A50461E08DE00E94A504BB
:1004500060E082E00E94A5040E948E008CB58C7F33
:1004600081608CBD8DB58E7F8DBD08956F927F921A
:100470009F92AF92BF92CF92DF92EF92FF920F9333
:100480001F93CF93DF931F92CDB7DEB782E00E9418
:100490001405019719F460E771E002C063E771E0A9
:1004A00086E292E00E94880160ED77E080E090E0D3
:1004B0000E940E040E948C038111F8C080911602E4
:1004C000811147C00FEF1FEF80EE91E00E94A50160
:1004D0007C010097B1F4012B11F08701F5CF8AE080
:1004E00090E00F90DF91CF911F910F91FF90EF90CF
:1004F000DF90CF90BF90AF909F907F906F900C94C3
:10050000360485352AEA920741F405351A4A29F757
:1005100010921802109217021EC08635EAEA9E0752
:1005200051F405351A4AC9F681E090E0909318021B
:100530008093170210C08A3A25E5920771F666E7A4
:1005400071E086E292E00E94650780E00E949E01D1
:10055000C4CF1092160210921A02109219029CE057
:10056000992EAA24A394B12C8091190290911A0279
:100570008238910508F09AC080EE91E00E94A501B2
:100580003C0185E568168AEA780641F481E08093AB
:100590001602109218021092170288C0E6E56E1635
:1005A000EAEA7E0651F481E08093160281E090E051
:1005B000909318028093170279C06114710409F4B2
:1005C00075C080911B0290911C02209119023091FC
:1005D0001A0282179307A0F44E9690931C02809300
:1005E0001B02989EB001999E700D11248091DE012E
:1005F0009091DF010E9434099093DF018093DE0126
:100600002091190230911A02929EC001939E900D82
:1006100011240091DE011091DF01080F191F6801FC
:10062000E12CF12C20E08091170290911802892B87
:1006300031F4253021F4F801138612860FC080EEC4
:1006400091E029830E94A501E80EF91EF60181932D
:1006500091936F0129812F5F263029F76E147F0453
:1006600051F48091190290911A02019690931A0206
:100670008093190206C06EE771E086E292E00E9464
:10068000650780EE91E00E94A5018535FAEA9F0793
:1006900029F4109218021092170266CF86359A4AF2
:1006A00029F4B0921802A09217025ECF0F90DF914A
:1006B000CF911F910F91FF90EF90DF90CF90BF905F
:1006C000AF909F907F906F9008951092F0011092DC
:1006D000F1011092F2011092130210921402109282
:1006E00015021092160210921A02109219028EE14F
:1006F00090E090931C0280931B0288E691E00E9498
:100700000D089093DF018093DE0108958091DE0152
:100710009091DF010C94A50882E00E94140521E06D
:10072000019709F020E0822F08951F920F920FB6D3
:100730000F9211242F933F938F939F93AF93BF9367
:1007400080911E0290911F02A0912002B09121027F
:1007500030911D0223E0230F2D3720F40196A11DB7
:10076000B11D05C026E8230F0296A11DB11D2093DF
:100770001D0280931E0290931F02A0932002B0934B
:1007800021028091220290912302A0912402B09133
:1007900025020196A11DB11D809322029093230290
:1007A000A0932402B0932502BF91AF919F918F91A6
:1007B0003F912F910F900FBE0F901F9018952FB75C
:1007C000F89460911E0270911F0280912002909116
:1007D00021022FBF08953FB7F89480912202909193
:1007E0002302A0912402B091250226B5A89B05C042
:1007F0002F3F19F00196A11DB11D3FBF6627782F2D
:10080000892F9A2F620F711D811D911D42E0660F85
:10081000771F881F991F4A95D1F70895CF92DF92CD
:10082000EF92FF92CF93DF936B017C010E94EB0369
:10083000EB01C114D104E104F10489F00E94E40742
:100840000E94EB036C1B7D0B683E734090F381E0CC
:10085000C81AD108E108F108C851DC4FEACFDF918E
:10086000CF91FF90EF90DF90CF9008958230910567
:1008700038F0880F991F880F991F05970197F1F796
:100880000895789484B5826084BD84B5816084BD08
:1008900085B5826085BD85B5816085BDEEE6F0E0F9
:1008A000808181608083E1E8F0E010828081826055
:1008B0008083808181608083E0E8F0E080818160D6
:1008C0008083E1EBF0E0808184608083E0EBF0E006
:1008D000808181608083EAE7F0E0808184608083AA
:1008E0008081826080838081816080838081806854
:1008F00080831092C1000895833081F028F4813004
:1009000099F08230A1F008958730A9F08830B9F0CD
:100910008430D1F4809180008F7D03C0809180006D
:100920008F7780938000089584B58F7702C084B557
:100930008F7D84BD08958091B0008F7703C0809132
:10094000B0008F7D8093B0000895CF93DF9390E047
:10095000FC01E458FF4F2491FC01E057FF4F8491C4
:10096000882349F190E0880F991FFC01E854FF4F5C
:10097000A591B49182559F4FFC01C591D4919FB729
:10098000611108C0F8948C91209582238C93888102
:1009900082230AC0623051F4F8948C91322F309542
:1009A00083238C938881822B888304C0F8948C9154
:1009B000822B8C939FBFDF91CF9108950F931F934C
:1009C000CF93DF931F92CDB7DEB7282F30E0F90128
:1009D000E859FF4F8491F901E458FF4F1491F90150
:1009E000E057FF4F04910023C9F0882321F0698369
:1009F0000E947C046981E02FF0E0EE0FFF1FE255BA
:100A0000FF4FA591B4919FB7F8948C91611103C0E9
:100A10001095812301C0812B8C939FBF0F90DF9194
:100A2000CF911F910F910895CF93DF93282F30E03E
:100A3000F901E859FF4F8491F901E458FF4FD4912F
:100A4000F901E057FF4FC491CC2391F081110E942E
:100A50007C04EC2FF0E0EE0FFF1FEC55FF4FA5914B
:100A6000B4912C912D2381E090E021F480E002C02C
:100A700080E090E0DF91CF910895FC01818D228D7F
:100A800090E0805C9F4F821B91098F739927089596
:100A9000FC01918D828D981731F0828DE80FF11D48
:100AA000858D90E008958FEF9FEF0895FC01918D63
:100AB000828D981761F0828DDF01A80FB11D5D96C0
:100AC0008C91928D9F5F9F73928F90E008958FEF2E
:100AD0009FEF08958AED96E0892B49F080E090E041
:100AE000892B29F00E94DA0681110C9400000895E8
:100AF000FC01848DDF01A80FB11DA35ABF4F2C91BB
:100B0000848D90E001968F739927848FA689B78989
:100B10002C93A089B1898C9180648C93938D848D62
:100B2000981306C00288F389E02D80818F7D808331
:100B30000895CF93DF93EC01888D8823C9F0EA896B
:100B4000FB89808185FD05C0A889B9898C9186FDC6
:100B50000FC00FB607FCF5CF808185FFF2CFA889C3
:100B6000B9898C9185FFEDCFCE010E947805E7CF42
:100B7000DF91CF910895CF92DF92FF920F931F9351
:100B8000CF93DF931F92CDB7DEB76C0181E0D60122
:100B900058968C9358975B969C915B975C968C913A
:100BA0005C97981307C05096ED91FC915197808106
:100BB00085FD2EC0F601038D10E00F5F1F4F0F73F0
:100BC0001127F02EF601848DF81211C00FB607FC24
:100BD000F9CFD6015096ED91FC915197808185FF18
:100BE000F1CFC60169830E9478056981EBCF838DBF
:100BF000E80FF11DE35AFF4F6083D6015B960C931B
:100C00005B975296ED91FC915397808180620CC066
:100C1000D6015696ED91FC91579760835096ED91D1
:100C2000FC91519780818064808381E090E00F90F7
:100C3000DF91CF911F910F91FF90DF90CF9008959A
:100C4000BF92CF92DF92EF92FF92CF93DF93EC01AE
:100C50006A017B01B22EE889F98982E0808341151F
:100C600081EE580761057105A1F060E079E08DE340
:100C700090E0A70196010E94E50721503109410942
:100C800051095695479537952795211580E13807E5
:100C900098F0E889F989108260E874E88EE190E0C4
:100CA000A70196010E94E507215031094109510928
:100CB0005695479537952795EC85FD853083EE85CC
:100CC000FF852083188EEC89FD89B082EA89FB8933
:100CD000808180618083EA89FB898081886080834C
:100CE000EA89FB89808180688083EA89FB89808129
:100CF0008F7D8083DF91CF91FF90EF90DF90CF9039
:100D0000BF9008951F920F920FB60F9211242F9348
:100D10008F939F93EF93FF93E0913602F091370208
:100D20008081E0913C02F0913D0282FD12C09081F1
:100D300080913F028F5F8F7320914002821751F0A4
:100D4000E0913F02F0E0EA5DFD4F958F80933F0216
:100D500001C08081FF91EF919F918F912F910F9012
:100D60000FBE0F901F9018951F920F920FB60F9203
:100D700011242F933F934F935F936F937F938F93A0
:100D80009F93AF93BF93EF93FF9386E292E00E940D
:100D90007805FF91EF91BF91AF919F918F917F91D6
:100DA0006F915F914F913F912F910F900FBE0F90D8
:100DB0001F90189586E292E00E943D0521E0892B64
:100DC00009F420E0822F089510922902109228023F
:100DD00088EE93E0A0E0B0E080932A0290932B028B
:100DE000A0932C02B0932D028BE891E09093270200
:100DF0008093260285EC90E0909333028093320238
:100E000084EC90E0909335028093340280EC90E083
:100E1000909337028093360281EC90E090933902F0
:100E20008093380282EC90E090933B0280933A02E8
:100E300086EC90E090933D0280933C0210923F023A
:100E400010924002109241021092420208950895B9
:100E50000E9441040E9427070E94ED01CAE6D5E0E6
:100E60000E9436022097E1F30E946A05F9CFCF92E3
:100E7000DF92EF92FF920F931F93CF93DF936C015A
:100E80007A01EB01E60EF71E00E010E0CE15DF055B
:100E900061F06991D601ED91FC910190F081E02D16
:100EA000C6010995080F191FF1CFC801DF91CF9135
:100EB0001F910F91FF90EF90DF90CF9008950C94C9
:100EC000880163E171E00C9488010F931F93CF9325
:100ED000DF93EC010E9488018C01CE010E94610722
:100EE000800F911FDF91CF911F910F9108958F92E5
:100EF0009F92AF92BF92CF92DF92EF92FF920F93A9
:100F00001F93CF93DF93CDB7DEB7A1970FB6F894B9
:100F1000DEBF0FBECDBF7C01C42EE52FCB01D22E8C
:100F200019A221E02D1510F02AE0D22E8E010F5DBE
:100F30001F4F8D2C912CA12CB12C6C2D7E2FA50137
:100F400094010E94E5078C2DD29E80191124015036
:100F500011098A3014F4805D01C0895CF801808336
:100F6000211531054105510521F0C22EE32FCA019B
:100F7000E4CFB801C7010E948801A1960FB6F8948A
:100F8000DEBF0FBECDBFDF91CF911F910F91FF90BC
:100F9000EF90DF90CF90BF90AF909F908F9008958B
:100FA0002115310541F4DC01ED91FC910190F081B6
:100FB000E02D642F09940C9477079A01462F50E096
:100FC00060E070E00C94D0070895A1E21A2EAA1BED
:100FD000BB1BFD010DC0AA1FBB1FEE1FFF1FA217E9
:100FE000B307E407F50720F0A21BB30BE40BF50BE6
:100FF000661F771F881F991F1A9469F7609570956F
:10100000809590959B01AC01BD01CF010895EE0F35
:10101000FF1F0590F491E02D0994CF93DF93823068
:10102000910510F482E090E0E091C502F091C602D3
:1010300020E030E0A0E0B0E0309739F1408151810C
:1010400048175907B8F04817590771F482819381FE
:10105000109729F013969C938E9312972CC090931F
:10106000C6028093C50227C02115310531F0421711
:10107000530718F0A901DB0101C0EF019A01BD017E
:10108000DF010280F381E02DD7CF21153105F9F082
:10109000281B390B2430310580F48A819B8161152E
:1010A000710521F0FB019383828304C09093C602F3
:1010B0008093C502FE01329644C0FE01E20FF31F89
:1010C0008193919322503109398328833AC020912A
:1010D000C3023091C402232B41F4209102013091CC
:1010E00003013093C4022093C30220910001309188
:1010F00001012115310541F42DB73EB7409104019E
:1011000050910501241B350BE091C302F091C402FC
:10111000E217F307A0F42E1B3F0B2817390778F0CE
:10112000AC014E5F5F4F2417350748F04E0F5F1F2D
:101130005093C4024093C3028193919302C0E0E0B4
:10114000F0E0CF01DF91CF910895CF93DF93009727
:1011500009F487C0FC01329713821282C091C50244
:10116000D091C602209781F420813181280F391F48
:101170008091C3029091C4028217930779F5F0938E
:10118000C402E093C3026DC0DE0120E030E0AE1780
:10119000BF0750F412964D915C9113979D01411534
:1011A000510509F1DA01F3CFB383A2834081518164
:1011B000840F951F8A179B0771F48D919C9111974D
:1011C000840F951F02969183808312968D919C9136
:1011D0001397938382832115310529F4F093C60276
:1011E000E093C5023EC0D9011396FC93EE9312978B
:1011F0004D915D91A40FB51FEA17FB0779F480812B
:101200009181840F951F0296D90111969C938E931C
:101210008281938113969C938E931297E0E0F0E085
:101220008A819B81009719F0FE01EC01F9CFCE0174
:10123000029628813981820F931F2091C302309139
:10124000C4022817390769F4309729F41092C602AE
:101250001092C50202C013821282D093C402C093BE
:10126000C302DF91CF910895A0E0B0E0EAE3F9E096
:101270000C940B0AEC01CB01209719F40E940D0885
:10128000B8C0FE01E60FF71F9E0122503109E21798
:10129000F30708F4ACC0D9010D911C911197061702
:1012A0001707B8F00530110508F49FC0A801445095
:1012B00051094617570708F498C002501109061B38
:1012C000170B019311936D937C93CF010E94A50896
:1012D0008CC05B01A01AB10A4E01800E911EA09134
:1012E000C502B091C602612C712C60E070E01097CD
:1012F00009F449C0A815B905C9F5ED90FC901197FE
:10130000670142E0C40ED11CCA14DB0478F1470126
:101310008A189B08640142E0C40ED11C1296BC904E
:1013200012971396AC91B5E0CB16D10440F0B2827F
:10133000A38391828082D9018D939C9309C00E5F13
:101340001F4F0E0D1F1DF90111830083EB2DFA2F86
:101350006115710531F0DB011396FC93EE93129742
:1013600044C0F093C602E093C5023FC06D917C91EA
:1013700011976616770608F43B01BD0112960D9091
:10138000BC91A02DB4CF6091C3027091C4026815C6
:101390007905E9F468167906D0F44091000150917E
:1013A00001014115510541F44DB75EB7609104014B
:1013B00070910501461B570BE417F507C0F4F09335
:1013C000C402E093C302F901918380830EC00E949E
:1013D0000D087C01009759F0A801BE010E94FE098A
:1013E000CE010E94A508C70104C0CE0102C080E062
:1013F00090E0CDB7DEB7EEE00C94270AFB01DC01EC
:1014000002C001900D9241505040D8F708952F929C
:101410003F924F925F926F927F928F929F92AF9284
:10142000BF92CF92DF92EF92FF920F931F93CF93D1
:10143000DF93CDB7DEB7CA1BDB0B0FB6F894DEBF68
:101440000FBECDBF09942A88398848885F846E848E
:101450007D848C849B84AA84B984C884DF80EE80D8
:10146000FD800C811B81AA81B981CE0FD11D0FB6E1
:10147000F894DEBF0FBECDBFED01089510E0C6ECBD
:10148000D0E004C0FE010E9409082296C83CD107A2
:06149000C9F7F894FFCF3C
:101496000000C7028000564D4450435F005F564D22
:1014A6004450430D0A004572726F723A20417474BB
:1014B600656D707420746F20736574206120726589
:1014C60061642D6F6E6C79207661726961626C65FC
:1014D600206F7220646174612074797065206E6F6C
:1014E6007420737570706F727465640D0A00564DC2
:1014F6004450565F317C315F564D4450560D0A00BC
:1015060057350043300072656F726465720063730D
:10151600206572726F720000000000BB0537073D40
:10152600055605480599056E616E00696E66006F81
:061536007666002E0000A5
:00000001FF
