:100000000C945F000C9487000C9487000C9487007C
:100010000C9487000C9487000C9487000C94870044
:100020000C9487000C9487000C9487000C94870034
:100030000C9487000C9487000C9487000C94870024
:100040000C9430010C9487000C94FA030C942C044B
:100050000C9487000C9487000C9487000C94870004
:100060000C9487000C948700000000080002010037
:100070000003040700000000000000000102040863
:100080001020408001020408102001020408102002
:10009000040404040404040402020202020203032E
:1000A0000303030300000000250028002B000000CC
:1000B0000000240027002A00F3005C04140111242E
:1000C0001FBECFEFD8E0DEBFCDBF11E0A0E0B1E0B2
:1000D000ECECFDE002C005900D92A831B107D9F714
:1000E00022E0A8E1B1E001C01D92A230B207E1F721
:1000F00010E0CCEBD0E004C02297FE010E94AE05D8
:10010000C83BD107C9F70E94A0040C94D9060C94EF
:100110000000CF93CFB7F89480911801811127C0C8
:10012000EAE9F0E08491E6E8F0E09491E82FF0E06D
:10013000EE0FFF1FE255FF4FA591B4918C918923DB
:1001400021F461E08AE00E947F0261E08AE00E947F
:1001500046028CB580618CBD8CB580648CBD61E03D
:100160008DE00E94460261E08BE00E944602809191
:1001700018018F5F80931801CFBFCF91089526E0BB
:1001800040E855E260E070E081E691E00E9498036B
:1001900061E085E00E94460260E086E00E9446023F
:1001A00061E087E00E94460260E08EE00E94460225
:1001B0000E9489008CB58C7F81608CBD8DB58E7F4F
:1001C0008DBD8EE00E9400024AE050E0BC0181E655
:1001D00091E00E94810568EE73E080E090E00E946B
:1001E0009D01EFCF089510922B0110922C011092D7
:1001F0002D0110924E0110924F0110925001109259
:10020000510110925501109254018EE190E09093AB
:1002100057018093560188E691E00E94B2059093C1
:100220001A018093190108958091190190911A0182
:100230000C944A066115710581F0DB010D900020D8
:10024000E9F7AD0141505109461B570BDC01ED9117
:10025000FC910280F381E02D099480E090E0089504
:100260001F920F920FB60F9211242F933F938F93EB
:100270009F93AF93BF938091590190915A01A091A0
:100280005B01B0915C013091580123E0230F2D37C1
:1002900020F40196A11DB11D05C026E8230F02968A
:1002A000A11DB11D209358018093590190935A01CB
:1002B000A0935B01B0935C0180915D0190915E0120
:1002C000A0915F01B09160010196A11DB11D8093C5
:1002D0005D0190935E01A0935F01B0936001BF91B7
:1002E000AF919F918F913F912F910F900FBE0F90E3
:1002F0001F9018953FB7F89480915D0190915E0131
:10030000A0915F01B091600126B5A89B05C02F3F69
:1003100019F00196A11DB11D3FBF6627782F892FC7
:100320009A2F620F711D811D911D42E0660F771F8C
:10033000881F991F4A95D1F70895CF92DF92EF92C7
:10034000FF92CF93DF936B017C010E947A01EB0156
:10035000C114D104E104F10489F00E9489050E94CE
:100360007A016C1B7D0B683E734090F381E0C81AE4
:10037000D108E108F108C851DC4FEACFDF91CF91F5
:10038000FF90EF90DF90CF900895789484B58260CD
:1003900084BD84B5816084BD85B5826085BD85B529
:1003A000816085BDEEE6F0E0808181608083E1E8D8
:1003B000F0E0108280818260808380818160808310
:1003C000E0E8F0E0808181608083E1EBF0E0808113
:1003D00084608083E0EBF0E0808181608083EAE7E5
:1003E000F0E080818460808380818260808380816E
:1003F000816080838081806880831092C10008952D
:100400008E3008F08E5087702091060190E4299F6D
:1004100090011124822B80937C0080917A0080646B
:1004200080937A0080917A0086FDFCCF80917800DD
:100430002091790090E0922B0895833081F028F488
:10044000813099F08230A1F008958730A9F088308A
:10045000B9F08430D1F4809180008F7D03C0809109
:1004600080008F7780938000089584B58F7702C0D5
:1004700084B58F7D84BD08958091B0008F7703C0CF
:100480008091B0008F7D8093B0000895CF93DF936B
:1004900090E0FC01E458FF4F2491FC01E057FF4F2E
:1004A0008491882349F190E0880F991FFC01E2555F
:1004B000FF4FA591B4918C559F4FFC01C591D491EC
:1004C0009FB7611108C0F8948C91209582238C937A
:1004D000888182230AC0623051F4F8948C91322FC3
:1004E000309583238C938881822B888304C0F89471
:1004F0008C91822B8C939FBFDF91CF9108950F93A6
:100500001F93CF93DF931F92CDB7DEB7282F30E034
:10051000F901E859FF4F8491F901E458FF4F149114
:10052000F901E057FF4F04910023C9F0882321F01F
:1005300069830E941D026981E02FF0E0EE0FFF1F2A
:10054000EC55FF4FA591B4919FB7F8948C91611130
:1005500003C01095812301C0812B8C939FBF0F9006
:10056000DF91CF911F910F910895FC01818D228D14
:1005700090E0805C9F4F821B91098F7399270895AB
:10058000FC01918D828D981731F0828DE80FF11D5D
:10059000858D90E008958FEF9FEF0895FC01918D78
:1005A000828D981761F0828DDF01A80FB11D5D96D5
:1005B0008C91928D9F5F9F73928F90E008958FEF43
:1005C0009FEF089582E594E0892B49F080E090E068
:1005D000892B29F00E94520481110C940000089587
:1005E000FC01848DDF01A80FB11DA35ABF4F2C91D0
:1005F000848D90E001968F739927848FA689B7899F
:100600002C93A089B1898C9180648C93938D848D77
:10061000981306C00288F389E02D80818F7D808346
:100620000895CF93DF93EC01888D8823C9F0EA8980
:10063000FB89808185FD05C0A889B9898C9186FDDB
:100640000FC00FB607FCF5CF808185FFF2CFA889D8
:10065000B9898C9185FFEDCFCE010E94F002E7CFE2
:10066000DF91CF910895CF92DF92FF920F931F9366
:10067000CF93DF931F92CDB7DEB76C0181E0D60137
:1006800058968C9358975B969C915B975C968C914F
:100690005C97981307C05096ED91FC91519780811B
:1006A00085FD2EC0F601038D10E00F5F1F4F0F7305
:1006B0001127F02EF601848DF81211C00FB607FC39
:1006C000F9CFD6015096ED91FC915197808185FF2D
:1006D000F1CFC60169830E94F0026981EBCF838D5F
:1006E000E80FF11DE35AFF4F6083D6015B960C9330
:1006F0005B975296ED91FC915397808180620CC07C
:10070000D6015696ED91FC91579760835096ED91E6
:10071000FC91519780818064808381E090E00F900C
:10072000DF91CF911F910F91FF90DF90CF900895AF
:10073000BF92CF92DF92EF92FF92CF93DF93EC01C3
:100740006A017B01B22EE889F98982E08083411534
:1007500081EE580761057105A1F060E079E08DE355
:1007600090E0A70196010E948A05215031094109B4
:1007700051095695479537952795211580E13807FA
:1007800098F0E889F989108260E874E88EE190E0D9
:10079000A70196010E948A0521503109410951099A
:1007A0005695479537952795EC85FD853083EE85E1
:1007B000FF852083188EEC89FD89B082EA89FB8948
:1007C000808180618083EA89FB8980818860808361
:1007D000EA89FB89808180688083EA89FB8980813E
:1007E0008F7D8083DF91CF91FF90EF90DF90CF904E
:1007F000BF9008951F920F920FB60F9211242F935E
:100800008F939F93EF93FF93E0917101F0917201A9
:100810008081E0917701F091780182FD12C0908192
:1008200080917A018F5F8F7320917B01821751F045
:10083000E0917A01F0E0EF59FE4F958F80937A01B5
:1008400001C08081FF91EF919F918F912F910F9027
:100850000FBE0F901F9018951F920F920FB60F9218
:1008600011242F933F934F935F936F937F938F93B5
:100870009F93AF93BF93EF93FF9381E691E00E9424
:10088000F002FF91EF91BF91AF919F918F917F9176
:100890006F915F914F913F912F910F900FBE0F90ED
:1008A0001F90189581E691E00E94B50221E0892B06
:1008B00009F420E0822F08951092640110926301E0
:1008C00088EE93E0A0E0B0E080936501909366012C
:1008D000A0936701B09368018BE091E0909362016F
:1008E0008093610185EC90E090936E0180936D019F
:1008F00084EC90E09093700180936F0180EC90E025
:10090000909372018093710181EC90E09093740157
:100910008093730182EC90E090937601809375014F
:1009200086EC90E0909378018093770110927A01A1
:1009300010927B0110927C0110927D010895089520
:100940000E94C5010E949F040E94BF00C2EED2E037
:100950000E94F2002097E1F30E94E202F9CFCF92C9
:10096000DF92EF92FF920F931F93CF93DF936C016F
:100970007A01EB01E60EF71E00E010E0CE15DF0570
:1009800061F06991D601ED91FC910190F081E02D2B
:10099000C6010995080F191FF1CFC801DF91CF914A
:1009A0001F910F91FF90EF90DF90CF900895DC01A1
:1009B000ED91FC910190F081E02D09948F929F922E
:1009C000AF92BF92CF92DF92EF92FF920F931F935D
:1009D000CF93DF93CDB7DEB7A1970FB6F894DEBF04
:1009E0000FBECDBF7C01C42EE52FCB01D22E19A2A4
:1009F00021E02D1510F02AE0D22E8E010F5D1F4F41
:100A00008D2C912CA12CB12C6C2D7E2FA501940145
:100A10000E948A058C2DD29E801911240150110943
:100A20008A3014F4805D01C0895CF801808321154F
:100A300031054105510521F0C22EE32FCA01E4CF53
:100A4000B801C7010E941A01A1960FB6F894DEBF43
:100A50000FBECDBFDF91CF911F910F91FF90EF900F
:100A6000DF90CF90BF90AF909F908F900895CF92DE
:100A7000DF92EF92FF920F931F93CF93DF93EC01DE
:100A80006A017B012115310579F4E881F981019032
:100A9000F081E02D642FDF91CF911F910F91FF9096
:100AA000EF90DF90CF9009942A303105E9F477FF79
:100AB0001AC06DE20E94D7048C0144275527BA0161
:100AC0004C195D096E097F092AE0CE010E94DE04FF
:100AD000800F911FDF91CF911F910F91FF90EF90A9
:100AE000DF90CF9008952AE0B701A601CE01DF91F3
:100AF000CF911F910F91FF90EF90DF90CF900C94CA
:100B0000DE049A01AB01662757FD6095762F0C94A1
:100B100037050895A1E21A2EAA1BBB1BFD010DC0CB
:100B2000AA1FBB1FEE1FFF1FA217B307E407F5079D
:100B300020F0A21BB30BE40BF50B661F771F881F79
:100B4000991F1A9469F760957095809590959B010F
:100B5000AC01BD01CF010895EE0FFF1F0590F49188
:100B6000E02D0994CF93DF938230910510F482E059
:100B700090E0E0910002F091010220E030E0A0E07E
:100B8000B0E0309739F14081518148175907B8F0EA
:100B90004817590771F482819381109729F01396B1
:100BA0009C938E9312972CC0909301028093000225
:100BB00027C02115310531F04217530718F0A9015C
:100BC000DB0101C0EF019A01BD01DF010280F38169
:100BD000E02DD7CF21153105F9F0281B390B243032
:100BE000310580F48A819B816115710521F0FB013B
:100BF0009383828304C09093010280930002FE01DC
:100C0000329644C0FE01E20FF31F8193919322506C
:100C10003109398328833AC02091FE013091FF01C8
:100C2000232B41F420910201309103013093FF0105
:100C30002093FE0120910001309101012115310521
:100C400041F42DB73EB74091040150910501241B9A
:100C5000350BE091FE01F091FF01E217F307A0F4DC
:100C60002E1B3F0B2817390778F0AC014E5F5F4F02
:100C70002417350748F04E0F5F1F5093FF01409334
:100C8000FE018193919302C0E0E0F0E0CF01DF919B
:100C9000CF910895CF93DF93009709F487C0FC01AB
:100CA000329713821282C0910002D09101022097E4
:100CB00081F420813181280F391F8091FE019091AC
:100CC000FF018217930779F5F093FF01E093FE018E
:100CD0006DC0DE0120E030E0AE17BF0750F4129681
:100CE0004D915C9113979D014115510509F1DA0170
:100CF000F3CFB383A28340815181840F951F8A175C
:100D00009B0771F48D919C911197840F951F02960A
:100D10009183808312968D919C9113979383828304
:100D20002115310529F4F0930102E09300023EC041
:100D3000D9011396FC93EE9312974D915D91A40FF8
:100D4000B51FEA17FB0779F480819181840F951F05
:100D50000296D90111969C938E938281938113966A
:100D60009C938E931297E0E0F0E08A819B8100973C
:100D700019F0FE01EC01F9CFCE01029628813981EC
:100D8000820F931F2091FE013091FF012817390730
:100D900069F4309729F4109201021092000202C007
:100DA00013821282D093FF01C093FE01DF91CF9195
:100DB000089510E0CCEBD0E004C0FE010E94AE0527
:0C0DC0002296CE3BD107C9F7F894FFCF74
:100DCC0000000202800001000000003303AF04B5F4
:080DDC0002CE02C00211030067
:00000001FF
