:100000000C945F000C9487000C9487000C9487007C
:100010000C9487000C9487000C9487000C94870044
:100020000C9487000C9487000C9487000C94870034
:100030000C9487000C9487000C9487000C94870024
:100040000C9429010C9487000C94D6030C9408049A
:100050000C9487000C9487000C9487000C94870004
:100060000C9487000C948700000000080002010037
:100070000003040700000000000000000102040863
:100080001020408001020408102001020408102002
:10009000040404040404040402020202020203032E
:1000A0000303030300000000250028002B000000CC
:1000B0000000240027002A00020138042301112433
:1000C0001FBECFEFD8E0DEBFCDBF11E0A0E0B1E0B2
:1000D000E0E2FCE002C005900D92AA31B107D9F729
:1000E00022E0AAE1B1E001C01D92A430B207E1F71D
:1000F00010E0CCEBD0E004C02297FE010E94D804AF
:10010000C83BD107C9F70E947C040C9403060C94E9
:100110000000CF93CFB7F89480911A01811127C0C6
:10012000EAE9F0E08491E6E8F0E09491E82FF0E06D
:10013000EE0FFF1FE255FF4FA591B4918C918923DB
:1001400021F461E08AE00E945B0261E08AE00E94A3
:1001500022028CB580618CBD8CB580648CBD61E061
:100160008DE00E94220261E08BE00E9422028091D9
:100170001A018F5F80931A01CFBFCF91089526E0B7
:1001800040E855E260E070E083E691E00E9474038D
:1001900061E089E00E94220260E088E00E94220281
:1001A00061E087E00E94220260E084E00E94220277
:1001B00060E083E00E94220260E085E00E9422026B
:1001C00060E086E00E9422020E9489008CB58C7F4C
:1001D00081608CBD8DB58E7F8DBD60ED77E080E058
:1001E00090E00E949601E0916301F0916401028029
:1001F000F381E02D42E050E066E071E083E691E0BB
:100200000994089510922D0110922E0110922F0141
:10021000109250011092510110925201109253010C
:1002200010925701109256018EE190E0909359017F
:100230008093580188E691E00E94DC0490931C01B1
:1002400080931B01089580911B0190911C010C94D7
:1002500074051F920F920FB60F9211242F933F93A4
:100260008F939F93AF93BF9380915B0190915C01BB
:10027000A0915D01B0915E0130915A0123E0230FFE
:100280002D3720F40196A11DB11D05C026E8230FCE
:100290000296A11DB11D20935A0180935B0190939A
:1002A0005C01A0935D01B0935E0180915F0190912C
:1002B0006001A0916101B09162010196A11DB11D83
:1002C00080935F0190936001A0936101B0936201FC
:1002D000BF91AF919F918F913F912F910F900FBE42
:1002E0000F901F9018953FB7F89480915F019091FF
:1002F0006001A0916101B091620126B5A89B05C083
:100300002F3F19F00196A11DB11D3FBF6627782F21
:10031000892F9A2F620F711D811D911D42E0660F7A
:10032000771F881F991F4A95D1F70895CF92DF92C2
:10033000EF92FF92CF93DF936B017C010E947301D8
:10034000EB01C114D104E104F10489F00E94B3046B
:100350000E9473016C1B7D0B683E734090F381E03B
:10036000C81AD108E108F108C851DC4FEACFDF9183
:10037000CF91FF90EF90DF90CF900895789484B55F
:10038000826084BD84B5816084BD85B5826085BD91
:1003900085B5816085BDEEE6F0E080818160808377
:1003A000E1E8F0E01082808182608083808181605A
:1003B0008083E0E8F0E0808181608083E1EBF0E021
:1003C000808184608083E0EBF0E0808181608083C5
:1003D000EAE7F0E0808184608083808182608083AE
:1003E0008081816080838081806880831092C100D9
:1003F0000895833081F028F4813099F08230A1F0A3
:1004000008958730A9F08830B9F08430D1F4809114
:1004100080008F7D03C0809180008F778093800063
:10042000089584B58F7702C084B58F7D84BD08950B
:100430008091B0008F7703C08091B0008F7D809352
:10044000B0000895CF93DF9390E0FC01E458FF4F94
:100450002491FC01E057FF4F8491882349F190E0FB
:10046000880F991FFC01E255FF4FA591B4918C555F
:100470009F4FFC01C591D4919FB7611108C0F894BA
:100480008C91209582238C93888182230AC06230CC
:1004900051F4F8948C91322F309583238C9388817A
:1004A000822B888304C0F8948C91822B8C939FBFFD
:1004B000DF91CF9108950F931F93CF93DF931F92F6
:1004C000CDB7DEB7282F30E0F901E859FF4F84910E
:1004D000F901E458FF4F1491F901E057FF4F0491DF
:1004E0000023C9F0882321F069830E94F901698102
:1004F000E02FF0E0EE0FFF1FEC55FF4FA591B491F8
:100500009FB7F8948C91611103C01095812301C0AD
:10051000812B8C939FBF0F90DF91CF911F910F91F3
:100520000895FC01818D228D90E0805C9F4F821B9D
:1005300091098F7399270895FC01918D828D9817E9
:1005400031F0828DE80FF11D858D90E008958FEFD9
:100550009FEF0895FC01918D828D981761F0828D37
:10056000DF01A80FB11D5D968C91928D9F5F9F73E7
:10057000928F90E008958FEF9FEF08958EE294E0C0
:10058000892B49F080E090E0892B29F00E942E040D
:1005900081110C9400000895FC01848DDF01A80FE7
:1005A000B11DA35ABF4F2C91848D90E001968F739B
:1005B0009927848FA689B7892C93A089B1898C91BA
:1005C00080648C93938D848D981306C00288F38980
:1005D000E02D80818F7D80830895CF93DF93EC01A0
:1005E000888D8823C9F0EA89FB89808185FD05C053
:1005F000A889B9898C9186FD0FC00FB607FCF5CF8D
:10060000808185FFF2CFA889B9898C9185FFEDCFD4
:10061000CE010E94CC02E7CFDF91CF910895CF9217
:10062000DF92FF920F931F93CF93DF931F92CDB76B
:10063000DEB76C0181E0D60158968C9358975B9693
:100640009C915B975C968C915C97981307C0509631
:10065000ED91FC915197808185FD2EC0F601038DAF
:1006600010E00F5F1F4F0F731127F02EF601848DDE
:10067000F81211C00FB607FCF9CFD6015096ED91D4
:10068000FC915197808185FFF1CFC60169830E945B
:10069000CC026981EBCF838DE80FF11DE35AFF4F48
:1006A0006083D6015B960C935B975296ED91FC911B
:1006B0005397808180620CC0D6015696ED91FC91D3
:1006C000579760835096ED91FC915197808180649B
:1006D000808381E090E00F90DF91CF911F910F9187
:1006E000FF90DF90CF900895BF92CF92DF92EF926C
:1006F000FF92CF93DF93EC016A017B01B22EE88970
:10070000F98982E08083411581EE58076105710502
:10071000A1F060E079E08DE390E0A70196010E94EE
:10072000B40421503109410951095695479537952F
:100730002795211580E1380798F0E889F98910821A
:1007400060E874E88EE190E0A70196010E94B4048D
:1007500021503109410951095695479537952795FB
:10076000EC85FD853083EE85FF852083188EEC892E
:10077000FD89B082EA89FB89808180618083EA8972
:10078000FB89808188608083EA89FB898081806819
:100790008083EA89FB8980818F7D8083DF91CF917F
:1007A000FF90EF90DF90CF90BF9008951F920F922F
:1007B0000FB60F9211242F938F939F93EF93FF9374
:1007C000E0917301F09174018081E0917901F091E1
:1007D0007A0182FD12C0908180917C018F5F8F73BE
:1007E00020917D01821751F0E0917C01F0E0ED59FC
:1007F000FE4F958F80937C0101C08081FF91EF9126
:100800009F918F912F910F900FBE0F901F90189571
:100810001F920F920FB60F9211242F933F934F9375
:100820005F936F937F938F939F93AF93BF93EF9358
:10083000FF9383E691E00E94CC02FF91EF91BF917C
:10084000AF919F918F917F916F915F914F913F9168
:100850002F910F900FBE0F901F90189583E691E097
:100860000E94910221E0892B09F420E0822F089553
:10087000109266011092650188EE93E0A0E0B0E06E
:100880008093670190936801A0936901B0936A0116
:100890008DE091E0909364018093630185EC90E09A
:1008A0009093700180936F0184EC90E090937201BB
:1008B0008093710180EC90E09093740180937301B8
:1008C00081EC90E0909376018093750182EC90E04A
:1008D000909378018093770186EC90E090937A0171
:1008E0008093790110927C0110927D0110927E011B
:1008F00010927F01089508950E94BE010E947B041A
:100900000E94BF00CEEBD2E00E9401012097E1F3EC
:100910000E94BE02F9CFCF92DF92EF92FF920F9327
:100920001F93CF93DF936C017A01EB01E60EF71E64
:1009300000E010E0CE15DF0561F06991D601ED9180
:10094000FC910190F081E02DC6010995080F191F57
:10095000F1CFC801DF91CF911F910F91FF90EF90E0
:10096000DF90CF9008950895A1E21A2EAA1BBB1B19
:10097000FD010DC0AA1FBB1FEE1FFF1FA217B3076B
:10098000E407F50720F0A21BB30BE40BF50B661F81
:10099000771F881F991F1A9469F760957095809545
:1009A00090959B01AC01BD01CF010895EE0FFF1F93
:1009B0000590F491E02D0994CF93DF938230910557
:1009C00010F482E090E0E0910202F091030220E056
:1009D00030E0A0E0B0E0309739F140815181481714
:1009E0005907B8F04817590771F48281938110971D
:1009F00029F013969C938E9312972CC09093030228
:100A00008093020227C02115310531F042175307A8
:100A100018F0A901DB0101C0EF019A01BD01DF015E
:100A20000280F381E02DD7CF21153105F9F0281B85
:100A3000390B2430310580F48A819B816115710561
:100A400021F0FB019383828304C09093030280937F
:100A50000202FE01329644C0FE01E20FF31F8193B1
:100A6000919322503109398328833AC020910002A2
:100A700030910102232B41F42091020130910301B6
:100A80003093010220930002209100013091010176
:100A90002115310541F42DB73EB740910401509125
:100AA0000501241B350BE0910002F0910102E217D1
:100AB000F307A0F42E1B3F0B2817390778F0AC0181
:100AC0004E5F5F4F2417350748F04E0F5F1F50935E
:100AD0000102409300028193919302C0E0E0F0E0B4
:100AE000CF01DF91CF910895CF93DF93009709F461
:100AF00087C0FC01329713821282C0910202D0910A
:100B00000302209781F420813181280F391F8091C1
:100B10000002909101028217930779F5F093010288
:100B2000E09300026DC0DE0120E030E0AE17BF07A9
:100B300050F412964D915C9113979D01411551050A
:100B400009F1DA01F3CFB383A28340815181840F8D
:100B5000951F8A179B0771F48D919C911197840FB3
:100B6000951F02969183808312968D919C91139785
:100B7000938382832115310529F4F0930302E093D6
:100B800002023EC0D9011396FC93EE9312974D9149
:100B90005D91A40FB51FEA17FB0779F4808191815D
:100BA000840F951F0296D90111969C938E93828192
:100BB000938113969C938E931297E0E0F0E08A81E4
:100BC0009B81009719F0FE01EC01F9CFCE0102964E
:100BD00028813981820F931F2091000230910102F8
:100BE0002817390769F4309729F4109203021092FC
:100BF000020202C013821282D0930102C09300024B
:100C0000DF91CF91089510E0CCEBD0E004C0FE015D
:100C10000E94D8042296CE3BD107C9F7F894FFCFA3
:100C2000000004028000563300000000000F038B18
:0A0C3000049102AA029C02ED0200EA
:00000001FF
